:020000040800F2
:10000000D0060020A10100086B1200083112000880
:10001000691200082B110008251C000800000000D0
:10002000000000000000000000000000D5140008DF
:100030002D11000800000000151300089915000894
:10004000BB010008BB010008BB010008BB010008A0
:10005000BB010008BB010008BB010008BB01000890
:10006000BB010008BB010008BB010008BB01000880
:10007000BB010008BB010008BB010008BB01000870
:10008000BB010008BB010008BB010008BB01000860
:10009000BB010008BB010008BB010008BB01000850
:1000A000BB010008BB010008BB010008BB01000840
:1000B000BB010008ED150008BB010008BB010008EA
:1000C000BB010008BB010008BB010008BB01000820
:1000D000BB010008C91A0008BB010008BB010008E9
:1000E000BB010008BB010008BB01000800F002F8DA
:1000F00000F047F80AA090E8000C82448344AAF17B
:100100000107DA4501D100F03CF8AFF2090EBAE878
:100110000F0013F0010F18BFFB1A43F0010318473B
:100120003031000050310000103A24BF78C878C147
:10013000FAD8520724BF30C830C144BF04680C60ED
:10014000704700000023002400250026103A28BF35
:1001500078C1FBD8520728BF30C148BF0B60704739
:10016000662902F06486002070471FB500F09EFAF1
:1001700004000020002102F0AFF8E0601FBD10B5C0
:1001800010BD00F0ABFB1146FFF7EFFF01F09CFF45
:1001900000F0C9FB03B4FFF7F2FF03BC01F057FD09
:1001A0000948804709480047FEE7FEE7FEE7FEE70B
:1001B000FEE7FEE7FEE7FEE7FEE7FEE70448054947
:1001C000054A064B704700009D150008ED00000829
:1001D000D0000020D0060020D0020020D002002055
:1001E000704700000FB4044910B503AA029800F04C
:1001F0004BFA10BC5DF814FB2C0000202DE9F041F7
:100200000E460446002020622046E168884730B34D
:10021000252805D0D4E901219047206A401CF2E747
:10022000E168204600278847050018D0A5F1410065
:10023000192802D820354FF4006732462946204657
:100240002760FFF78DFF40B1012804D0F61D26F08E
:1002500007060836D8E7361DD6E72846DAE7206ACB
:10026000BDE8F081704770477047704770472DE9CF
:10027000FF4F0C461E464FF0FF378BB0D2E900010E
:10028000DDF860800A908A46C1F30A5505B93D46FB
:10029000002108464FF00000BAF1000F00F44000C2
:1002A00005DA00EB80004FF4400101EA50004FEA0C
:1002B0009059B9F1010F00DDB9460A9850EA4A0099
:1002C0000ED044F61050A5F2FF3545432F14B8F177
:1002D000000F1ED07542291E1EDDC9F100021CE070
:1002E000B8F1010F4FF0000001D0302103E0F243DC
:1002F00005E02154401CB042FBDB304600220021C7
:1003000021540B99C1F80880C1E900200FB0BDE865
:10031000F08FBD1B6D1CDEE74A4600DA694206A875
:1003200000F066FA06AB93E8070003AB83E807002A
:1003300050460A9900F03EFB8DE80700A0F50050FA
:100340001F3800900398002D09DD42F21F014A4634
:10035000084403A90390684600F09DFD08E0A0F55D
:1003600000504A461F3803A90390684600F0A7FDD5
:100370008DE807000004000C03D04FF0FF30410867
:1003800000E01046B8F1000F03D00022009215469D
:100390001EE0751E05D400F08DF9303262556D1ED9
:1003A000F9D5B3460122084302D000227F1C04E0A5
:1003B0002078302801D100227F1E002A099786D09C
:1003C0001DE0112D07DA00F075F9303262556D1C11
:1003D00050EA0102F5D1084302D00098C8B10EE0FE
:1003E0000021681E05E0235C625C63542254401EB9
:1003F000491C8142F7DBAB46A81B401E0990002038
:1004000004F80B000B98099AC0F80880C0E9002B8B
:100410007CE711264FF0000859E72DE9F04F884698
:100420000446D21D22F0070191B0D1E90001CDE9C7
:100430000A0101F0F8FB02460B98C00F01D02D20F5
:1004400007E02068810701D52B2002E0202101EA86
:10045000C000032A099001D0072A05DB0346414664
:10046000204600F085F90BE12078800601D5E0698F
:1004700000E00620B8F1650F814606D0B8F1660F9E
:1004800018D0B8F1670F70D131E00020B9F1110F29
:10049000009001DB112301E009F101030AAA01A97F
:1004A0000CA8FFF7E4FEDDE90C70002609F1010558
:1004B000834647E001204B4600904FF000470AAAD0
:1004C00001A90CA8FFF7D3FEDDE90DB00C995D463C
:1004D000002610B909F101000D18B9EB050003D48D
:1004E000C0F1FF3609F10105A5EB09002BE0B9F1D8
:1004F000010F01DA4FF001090020B9F1110F00904E
:10050000484601DD112300E003460AAA01A90CA810
:10051000FFF7ADFEDDE90C704D46002683462078DE
:1005200000070AD4AB4500DA5D4601A8012D04DDC1
:10053000411911F8011C302907D04F4502DA17F193
:10054000040F04DA012082460FE06D1EEEE7002F53
:1005500002DCED1B3E4403E0781CA84200DD7D1C5C
:10056000B81B00F1010A4FF000472078000703D4C0
:10057000AA4501DB4FF0FF3A0021B7F1004F0DF122
:1005800043088DF8431024D002202B23002F01DADA
:100590007F422D230A21021EA0F1010000DC5FB181
:1005A00097FBF1FC97FBF1F201FB1C7C17460CF169
:1005B000300C08F801CDEEE7A8F1010003702188A6
:1005C000090501D5452100E06521A0F1010800F8E9
:1005D000011C09980FA9A1EB0807FF1D00B101201C
:1005E000411901EBEA70A1693844081A401EA06164
:1005F0002078C00602D42046AFF30080099828B1C5
:10060000D4E901219047206A401C20622078C0066E
:1006100022D52046AFF300801EE0002E04DBB34558
:1006200002DD01A8805D00E03020D4E9012190477F
:10063000206A401C2062761CAAF101005FEA000AD1
:100640000AD100F033F8C0680168405CD4E90121A8
:100650009047206A401C2062281EA5F10105DCDCC1
:1006600007E0D4E9012118F8010B9047206A401CEB
:100670002062381EA7F10107F3DC2046AFF30080AB
:10068000032011B043E60000074B70B50D467B44D4
:1006900000F05BF80446284600F018F910B14FF05E
:1006A000FF3070BD204670BDCF1600000048704777
:1006B0009000002030B5B0F10A024FEA900E71F1BF
:1006C00000034EEA817EB0EB0E0061EB91014FEA30
:1006D000101E4EEA017E10EB0E0041EB11114FEAA5
:1006E000102E4EEA016E10EB0E0041EB11214FEA85
:1006F000104E4EEA014E10EB0E0041EB1141401836
:1007000041F100014FEAD00040EA41704FEAD101C7
:1007100010EB80054FEA810444EA907444EB010435
:100720006D1944EB0404521BA3414FF0000348BF72
:100730000A3200D530BD401C41F1000130BD00003F
:1007400001694A1C02610878704700B58FB0CDE995
:1007500001310021059105497944CDE90310114685
:100760006846FFF74BFD0FB000BD0000E5FFFFFF3F
:100770002DE9F0411F46044603260168072A01F4CB
:10078000006004DB08B116A505E016A503E008B17A
:1007900015A500E015A521F010002060A069C01E7D
:1007A000A0610FB1401EA0612046AFF300804FB1A1
:1007B000D4E9012138469047206A401C2062C01CC1
:1007C000206206E0206AFAE7D4E9012115F8010B5E
:1007D0009047761EF8D22046AFF30080BDE8F08146
:1007E0004E414E006E616E00494E4600696E6600D5
:1007F0002DE9F047814616468AB0334878440DC843
:100800008DE80D0030487844801C03AC0DC884E8A6
:100810000D0041F69B300844372190FBF1F290FB2C
:10082000F1F5A5F1800501FB12041B3C02D56442E1
:10083000012000E00020DFF890A080460027FA4465
:10084000AAF1BE0A0DE0E00709D03246684607EB80
:1008500047010AEB810100F032FB8DE807006410CC
:100860007F1C002CEFD1184F7F44AC3F18E0E80705
:1008700014D007EB04100DF1180A90E80E008AE876
:100880000E00C068F04201D198190890324606A9BE
:1008900003A800F014FB03AB83E807006D10641C91
:1008A000002DE4D132466946B8F1000F03A802D00A
:1008B00000F0F1FA01E000F002FBC9E90001C9F81B
:1008C00008200AB0BDE8F087382A0000007B00F05D
:1008D0008000704700487047700000207546FFF7A1
:1008E000F9FFAE4605006946534620F007008546ED
:1008F00018B020B5FFF762FCBDE820404FF00006BD
:100900004FF000074FF000084FF0000B21F00701F7
:10091000AC46ACE8C009ACE8C009ACE8C009ACE83A
:10092000C0098D4670470446AFF300802046FFF7AC
:1009300031FC00004FF0013C50F8042B51F8043B0F
:100940009A4221D1A2EB0C03934313EACC1317D1A3
:1009500050F8042B51F8043B9A4215D1A2EB0C033A
:10096000934313EACC130BD150F8042B51F8043BFA
:100970009A4209D1A2EB0C03934313EACC13DBD0C8
:100980004FF00000704700BFD01A01BAB1FA81F1F0
:1009900001F0180122FA01F0CB40C1F12001DBB2D5
:1009A000C0B2C01A2CFA01F3D11A914311EAC31153
:1009B000E6D170475FEA400C08BF91F0000F4FEAA4
:1009C0008C234FEAC12243EA51514FEA1C5018BF11
:1009D00000F5F0404FEA300018BF41F000415FEAF7
:1009E0006C5C00F02980BCF1FF3F08BF40F0804004
:1009F0007047130C06BF12044FF0100C4FF0000CA0
:100A0000130E04BF12020CF1080C130F04BF1201E5
:100A10000CF1040C930F04BF92000CF1020CD30FE5
:100A200004BF52000CF1010C11464FF00002A0F17E
:100A30001F00A0EB0C00704711F0004F08BF70477B
:100A400031F000413FF4D5AF0B0C06BF09044FF065
:100A5000100C4FF0000C0B0E04BF09020CF1080C37
:100A60000B0F04BF09010CF1040C8B0F04BF8900AC
:100A70000CF1020CCB0F04BF49000CF1010CCCF1BE
:100A80002003A0EB0C0022FA03F302FA0CF241EA75
:100A9000030100F10100704720F07F4C80EA030061
:100AA00023F07F47ACEB070303F57C5300F00040D5
:100AB00003F1FF032DE980494FEA154B09B44FEAD2
:100AC000144325EA0B4E24EA03480FF2042606EBF2
:100AD000132749083E785FEA320203FB0667C7F531
:100AE000000707FB06F64FEA54374FEAD64606F1F1
:100AF000020607FB066CCCF1005C4FEA1C472CEAAF
:100B0000074C07FB06F40CFB06F504EB15464FEA11
:100B1000961634BF00204FF000404FEAD13706FB55
:100B200007FC4FEA1C4C0CFB0BF7D21B03FB0CF72A
:100B300061EB07010CFB0EF7B0EB074072EB1742BD
:100B40000CFB08F734BFA2EB0742B2EB074261EBA4
:100B500017414FEA0C444FEA910706FB07FC4FEAA6
:100B60001C4C0CFB0BF7B0EBC74072EB573203FB8E
:100B70000CF734BFA2EBC742B2EBC74261EB57316F
:100B80000CFB0EF7B0EBC70072EB57720CFB08F7CB
:100B900034BFA2EBC702B2EBC70261EB5771039FF0
:100BA0004FEA816141EA921104EBCC044FEAD1375C
:100BB0004FEA826206FB07FC42EA90124FEA80602D
:100BC0004FEA1C4C0CFB0BF7D21B03FB0CF761EB41
:100BD00007010CFB0EF7B0EB074072EB17420CFB62
:100BE00008F734BFA2EB0742B2EB074261EB1741B3
:100BF0004FEA8C554FEA910704EB9C2406FB07FC57
:100C00004FEA1C4C0CFB0BF7B0EBC74072EB5732B2
:100C100003FB0CF734BFA2EBC742B2EBC74261EB58
:100C200057310CFB0EF7B0EBC70072EB57720CFBA1
:100C300008F734BFA2EBC702B2EBC70261EB5771F2
:100C400015EB4C254FEA816141EA92114FEA82622D
:100C50004FEAD13742EA901206FB07FC44F1000448
:100C60004FEA80604FEA1C4C0CFB0BF7D21B03FBD6
:100C70000CF761EB07010CFB0EF7B0EB074072EBD2
:100C800017420CFB08F734BFA2EB0742B2EB074256
:100C900061EB174115EB1C154FEA813141EA924196
:100CA0004FEA823242EA90424FEA80304FEA0C76B5
:100CB00044F1000448EA03434EEA0B484FF0000EAB
:100CC000B2EB080C71EB030724BF624639464EEBCA
:100CD0000E0E4FF0000B0018524149414BEB0B0B2D
:100CE000B2EB080C71EB03077BF1000B24BF6246EB
:100CF00039464EEB0E0E4FF0000B001852414941A1
:100D00004BEB0B0BB2EB080C71EB03077BF1000B09
:100D100024BF624639464EEB0E0E51EA020718BF59
:100D200046F0010616EB0E7655F1000254F1000173
:100D300003D5BDE88901BDE80088BDE88901BDE8AB
:100D40000048B619524141EB0101A3F1010370477C
:100D500080807F7E7D7C7B7A7978777676757473F8
:100D6000727171706F6E6E6D6C6C6B6A6A696868B7
:100D7000676666656464636362616160605F5F5E4D
:100D80005E5D5D5C5C5B5B5A5A59595858575756C3
:100D90005655555554545353525252515150505028
:100DA0004F4F4F4E4E4D4D4D4C4C4C4B4B4B4A4A7A
:100DB0004A494949484848474747474646464545BE
:100DC00045444444444343434342424242414141F7
:100DD000002B26D4770021D01CB54FEA370703B487
:100DE0004FF010004FF010014FF000000FBCBDE8B5
:100DF00010400BF1010BBBF1010F08BF5FEA1707B1
:100E000022BF12F1010211F101014FF0004143F143
:100E1000000300F0004043EA00007047F9D3570890
:100E2000DAE746EA064613F1400F4FEA16461FDDA1
:100E300013F1200FDFBF16430A46002120335B4227
:100E4000C8D0C3F1200746EA064602FA07F74FEA80
:100E5000164646EA0706C3F1200722FA03F201FA12
:100E600007F721FA03F14FF0000342EA0702B1E766
:100E700046EA020646EA06464FEA164646EA0106F2
:100E8000BCBF46EA0646360C4FF000034FF00002A6
:100E90004FF000019EE72DE9C048934630B491E839
:100EA000380007C831EA400C48BF34EA430C03D588
:100EB000FFF7F2FDFFF78CFFF0BCBDE800882DE9DD
:100EC000C048934630B491E8380007C810F0804F0E
:100ED00008BF13F0804F03D100F005F8FFF778FF4B
:100EE000F0BCBDE8008820F07F4780EA030023F0D3
:100EF0007F4C07EB0C03A3F57C5300F00040A3F1FB
:100F0000FE0392F0000F00F0B38095F0000F00F0A8
:100F100077802DE901494FEA11404FEA144621EA52
:100F2000004800FB06FC24EA064708FB06F607FB20
:100F300008F800FB07F718EB06484CEB164C4FEA95
:100F4000124B18EB07484FEA15464CEB174022EAC4
:100F50000B4E0BFB06FC25EA06470EFB06F607FBCD
:100F60000EFE0BFB07F71EEB064E4CEB164C4FF03C
:100F700000061EEB074E4CEB174B18EB0B0840F12D
:100F8000000018EB0E0B58EB000840F100008F1A20
:100F90004FF000013CBFC943661B14BFB5EB040C06
:100FA00000213CBFC943F61B4FEA17444EEA8E0EA0
:100FB00027EA04454FEA1C4704FB07622CEA074C6A
:100FC00005FB07F70CFB05F604FB0CFC16EB0746CC
:100FD00042EB174216EB0C4642EB1C421BEB06069B
:100FE00058EB0202414146EA9E0601D5BDE801895F
:100FF000B619524141EB0101A3F10103BDE801899A
:101000004FEA14454FEA114724EA054621EA074C06
:1010100005FB07F406FB07F70CFB06F105FB0CFCD0
:1010200011EB074144EB17444FEA124711EB0C4117
:1010300044EB1C4422EA074C05FB07F206FB07F7CA
:101040000CFB06F605FB0CFC16EB074642EB1742C1
:1010500016EB0C4642EB1C456A1854F1000148BFE0
:101060007047B619524141EB0101A3F101037047EA
:1010700095F0000F37D04FEA11424FEA144721EAAA
:10108000024624EA074C02FB07F106FB07F70CFBBC
:1010900006F402FB0CFC14EB074441EB17414FEA4A
:1010A000154714EB0C4441EB1C4125EA074C02FBAD
:1010B00007F506FB07F70CFB06F602FB0CFC16EB2C
:1010C000074645EB174516EB0C4645EB1C4212193B
:1010D00051F1000148BF7047B619524141EB01017F
:1010E000A3F1010370474FEA14454FEA114724EA80
:1010F000054621EA074C05FB07F106FB07F70CFB49
:1011000006F24FF0000605FB0CFC12EB074241EB28
:10111000174112EB0C4251EB1C4148BF704792182B
:1011200041EB0101A3F101037047FEE77047F0B501
:10113000CC78002204F00F03E40601D58C78234319
:101140000C784FF00F0C14F0FF0F4FF0010E1BD076
:1011500005680E880EFA02F42640A64210D19600C9
:101160000CFA06F725EA070703FA06F5CE783D43A1
:10117000282E02D0482E02D002E0446100E0046133
:10118000521C082AE5D305600A88FF2A1CD9446846
:10119000002202F108060EFA06F50E882E40AE4235
:1011A0000ED196000CFA06F7BC4303FA06F7CE7888
:1011B0003C43282E00D14561CE78482E00D10561F0
:1011C000521C082AE5D34460F0BD0161704700005D
:1011D00070B5064611481025056000F02BF8040292
:1011E00000F028F80D49091F0D60044304F00405C0
:1011F000C4F3DB0010D015B1012D0AD00CE001F0D2
:1012000092F96FF0010201F046FE01F07BF83060C8
:1012100002E003A0FEF7E6FF284670BD1408014077
:101220004B206C696E65206F66660D0A0000000039
:10123000FEE7000010B50B4C0221204600F0D8F864
:101240000028F9D0FF21204600F0DBF801212046DC
:1012500000F0CEF80028F9D0204600F0D0F8C0B257
:1012600010BD000000300140FEE7704730B50F238D
:10127000C27801780125F2B1144A126801F1E02127
:1012800002F4E062C2F5E062120AC2F10404D34043
:101290004278A24084781C401443220181F8002443
:1012A000007800F01F018D404009800000F1E0202F
:1012B000C0F8005130BD01F01F0085404809800092
:1012C00000F1E020C0F8805130BD00000CED00E0DE
:1012D0000249084302490860704700000000FA050F
:1012E0000CED00E00146014800F096BB000800400C
:1012F0000146014800F092BB000800400146014849
:1013000000F08EBB000800400146014800F08ABB97
:101310000008004070470000044A0029D16901D04C
:10132000014300E08143D16170470000001002409A
:10133000044A0029916901D0014300E08143916191
:10134000704700000010024030B5204A5168204B21
:1013500011F00C0103D0042901D0082901D0036049
:1013600012E05168536801F470114FF0020413F455
:10137000803F04EB914102D053689B0301D5154B8C
:1013800000E0134B5943016051680F2303EA111128
:10139000114B5C5C0168E14041605468072505EA37
:1013A00014241C5D21FA04F48460546805EAD424F2
:1013B0001B5DD940C1605268032303EA9232064B99
:1013C0001B1F9A5CB1FBF2F1016130BD00100240BD
:1013D00000127A0000093D00340000200029018835
:1013E00002D041F0400101E021F04001018070474E
:1013F0000246002012890A4200D0012070478089ED
:1014000070478181704730B502884C8802F441539F
:101410000A88CD8822438C882C4322430C8922439E
:101420004C8922438C892243CC8922431A4302806F
:10143000828B22F400628283098A018230BD00001F
:1014400070B586B0012141F20400FFF771FFE02082
:10145000ADF8140001258DF8165018201B4E8DF89C
:10146000170005A93046FFF762FE1024ADF81440BE
:101470008DF816508DF8174005A93046FFF757FE36
:1014800010213046FFF7A1FE0020ADF800004FF418
:101490008271ADF80210ADF80800ADF80C40ADF85F
:1014A00004006101ADF80600ADF80E000720084CFD
:1014B000ADF80A10ADF8100069462046FFF7A3FF0B
:1014C00001212046FFF78AFF06B070BD00080140E9
:1014D00000300140704700000CB500222648009201
:1014E0000192016841F4803101604FF4A06301680A
:1014F00001F4003101910099491C0091019911B941
:1015000000999942F3D10168890333D501210191F2
:101510001A490A6842F010020A600A6822F00302BF
:101520000A600A6842F002020A604168416041684C
:101530004160416841F480614160416821F47C115F
:101540004160416841F4E8114160016841F08071F7
:10155000016001688901FCD5416821F00301416007
:10156000416841F0020141604168C1F381010229F3
:10157000FAD10CBD01920CBD0010024000200240C7
:101580004FF0E0210428086903D020F0040008612E
:10159000704740F00400FAE7704700000F4810B5AC
:1015A000016841F00101016041680D4A114041604C
:1015B00001680C4A11400160016821F4802101603A
:1015C000416821F4FE0141604FF41F018160FFF783
:1015D00083FF05494FF00060086010BD0010024015
:1015E0000000FFF8FFFFF6FE08ED00E010B50F4C1D
:1015F0000121204600F0ECF8002816D00C4A1178A2
:1016000009B1491E1170517809B1491E5170917884
:1016100009B1491E9170D07808B1401ED0702046A3
:10162000BDE81040012100F0C6B810BD0004004024
:10163000080000207FB50D46044601210220FFF777
:101640006BFEADF804400020ADF80050104CADF832
:101650000600ADF802006946204600F0E7F90122D5
:101660001146204600F0C0F81D218DF80C10022113
:101670008DF80D108DF80E1001208DF80F0003A8C5
:10168000FFF7F4FD0121204600F098F87FBD00002F
:101690000004004038B501210820FFF749FE012170
:1016A0000420FFF739FE18208DF803004FF4707006
:1016B000ADF8000003200B4C8DF80200694620466F
:1016C000FFF735FD10218DF803100221ADF8001051
:1016D00069462046FFF72BFD02212046FFF775FDE6
:1016E00038BD0000000C014070B588B040F2F31026
:1016F000ADF8140041F61F40ADF810000024234E51
:10170000ADF81640ADF8124004A9304600F08EF94D
:101710007020ADF8000002200125ADF80800ADF8FA
:101720000250ADF806406946304600F065F80821E1
:10173000304600F0A1F8ADF80250ADF80640694619
:10174000304600F09FF80821304600F0DBF8ADF895
:101750000250ADF806406946304600F0DDF8082139
:10176000304600F017F9ADF80250ADF80640694672
:10177000304600F015F90821304600F043F9012108
:10178000304600F01BF808B070BD000000080040B3
:1017900010B5FFF77FFFFFF7A7FF0020FFF7A2FDBF
:1017A0000020FFF7A5FD0020FFF7A8FDBDE81040D1
:1017B0000020FFF7A9BDC9430182704700290188B5
:1017C00002D041F0010101E021F0010101807047E8
:1017D00002460020138A92890B4202EA010202D0DB
:1017E000002A00D001207047002A828901D00A43D4
:1017F00000E08A438281704730B5028C22F00102FA
:101800000284028C8388048B22F0020224F0730588
:101810000C882C430D8915434A882A43114DA84250
:101820000BD0114DA84208D0104DA84205D0104D44
:10183000A84202D00F4DA8420DD122F008054A89D6
:1018400023F440732A4322F004058A882A438D89B1
:101850001D43CB892B4383800483C98881860284FE
:1018600030BD0000002C0140003401400040014028
:101870000044014000480140028B22F008020A4364
:101880000283704770B5028C22F010020284028C31
:101890008388048B0D8824F4E6464FF6FF7404EA2F
:1018A000052535430E8922F0200204EA0616164368
:1018B0004A8804EA02123243104EB04202D0104E5F
:1018C000B04215D122F080064A8923F4406304EA2D
:1018D0000212324322F040068A8804EA021232439E
:1018E0008E8904EA86061E43CB8904EA83033343C8
:1018F00083800583C9880187028470BD002C014064
:1019000000340140028B4FF6FF7322F4006203EAB9
:10191000012111430183704770B5028C22F480725B
:101920000284028C8388848B0D8824F07304254301
:101930000E894FF6FF7422F4007204EA062616435D
:101940004A8804EA02223243104EB04202D0104EBE
:10195000B04215D122F400664A8923F4405304EAC8
:101960000222324322F480668A8804EA0222324349
:101970008E8904EA06161E43CB8904EA0313334317
:1019800083808583C9888187028470BD002C0140D3
:1019900000340140828B22F008020A4382837047A0
:1019A00070B5028C22F480520284058C8288838B6D
:1019B0000C8823F4E6464FF6FF7303EA042434430D
:1019C00025F400560D8903EA053535434E8803EAB0
:1019D00006362E43094DA84202D0094DA84205D132
:1019E00022F480458A8903EA82122A438280848312
:1019F000C988A0F84010068470BD0000002C01408A
:101A000000340140828B4FF6FF7322F4006203EA38
:101A10000121114381837047818670470187704798
:101A200081877047A0F840107047000030B50288E9
:101A30001B4C1C4DA0420DD0A8420BD0B0F1804FE2
:101A400008D0194B984205D0184B984202D0184B39
:101A5000984203D122F070034A881A43154B9842EA
:101A600006D0154B984203D022F44073CA881A431B
:101A700002808A8882850A880285A0420AD0A8420C
:101A800008D00E4A904205D00D4A904202D00D4A2D
:101A9000904201D1097A01860121818230BD000086
:101AA000002C0140003401400004004000080040C8
:101AB000000C0040001000400014004000400140B5
:101AC000004401400048014010B5074C40F2255148
:101AD000204600F015F8002804D02046BDE810404C
:101AE00000F09CB810BD0000003801400029818939
:101AF00002D041F4005101E021F40051818170478E
:101B000070B501F01F0501260024C1F3421306FA47
:101B100005F2012B0FD0022B0FD0838A4FEA11213F
:101B20000088134206FA01F600EA060001D000B16F
:101B30000124204670BD8389F0E7038AEEE710B5E3
:101B4000C1F3421301F01F040121A140012B07D072
:101B5000022B07D01430002A026805D00A4304E0A3
:101B60000C30F8E71030F6E78A43026010BD000041
:101B700030B50446008A85B00D464CF6FF7108402A
:101B8000E98801432182A0894EF6F3110840A98813
:101B90002A8911436A8902431143A181A08A4FF621
:101BA000FF410840A9890143A1826846FFF7CCFBA9
:101BB0001948844201D1039800E00298A1890904E0
:101BC00000EBC00101EB0010296801D5490000E0DD
:101BD0008900B0FBF1F06422B0FBF2F109010B09BE
:101BE0006FF018056B4300EB8300A3891D044FF0D1
:101BF000320306D503EBC000B0FBF2F000F00700A3
:101C000005E003EB0010B0FBF2F000F00F0008431A
:101C1000208105B030BD0000003801408088C0F34D
:101C200008007047FEE7490050EAC12018BF0420B1
:101C30004A0D18BF40F0010040F2FF72B2EB515F55
:101C400008BF40F00200012808BF05207047704718
:101C5000FEB504460846C4E90212114601F072F8C6
:101C60002062666A0546314601F06CF8074601219C
:101C7000304601F03EF9294601F059F8A16A00F01A
:101C8000CFFD06466A463946284600F075F80299A7
:101C9000E06900F0C5FD314600F04CFF06460199B1
:101CA000A06900F0BDFD294600F044FF05460099FB
:101CB000606900F0B5FD394600F03CFF294600F0B0
:101CC000AFFD314600F0ACFD2061616800F0FEFF21
:101CD00001D2206900E06068216800F0F7FE08D2B8
:101CE0006168206900F0F2FF01D2206902E06068BB
:101CF00000E020682061616AA162216A6162FEBD24
:101D000030B500F1180CDDE90354C0E900450024AA
:101D10008460C460C0E904418CE81C0044628462B1
:101D200030BD000010B56FF00400FFF729FC094832
:101D300009490068B0FBF1F00849C0B200EB40026D
:101D40000870C2EBC0104FF6FF7202EAC000488074
:101D500010BD00001400002000127A0028000020AE
:101D600004490A885206FCD5024AC1B2121D1180EC
:101D700070470000003801402DE9F04FC84B89B092
:101D80001746984201D2024600E01A46C54CA242CC
:101D900003DA984202D3184600E0204602469942F0
:101DA00001D2084600E01846A04203DA994202D365
:101DB000194600E02146DFF8F0920D464E464946AE
:101DC000104600F0B7FEA046214600F09DFD0446F7
:101DD0003146284600F0AEFE414600F095FD05462E
:101DE000B44202DC14F17F5F02D9002001461FE0FB
:101DF00014F1FF4F0ED2B4F1804F02DB0020AB494B
:101E000016E0B4F17E5F4FF0000001DBA8490FE05F
:101E1000A8490DE014F1814F02D80020A64907E03F
:101E2000B4F1404F4FF0000001D8A44900E0A449AC
:101E300000F068FA804600F0C7FCDFF878A206469A
:101E400000225346009100F0D5FB9C4B00225B42E0
:101E5000CDE9020100F088FA00F036FB83463046F7
:101E600000225346009900F07FFA944B0E46002260
:101E70005B42009000F078FA00F026FB824618F0F2
:101E8000FF4F23D0204600F09FFC02460B46314610
:101E9000009800F0AFFB00F035FA18F0FF4F01900A
:101EA00017D0DDE902618846204600F08DFC3246FD
:101EB000434600F09FFB00F025FA03904D4502DCFD
:101EC00015F17F5F08D90020014625E0002001467A
:101ED000E1E700200146EEE715F1FF4F0ED2B5F124
:101EE000804F02DB0020714916E0B5F17E5F4FF0B4
:101EF000000001DB6E490FE06E490DE015F1814FE6
:101F000002D800206C4907E0B5F1404F4FF00000C7
:101F100001D86A4900E06A4900F0F4F9804600F00F
:101F200053FC04460022634B009100F063FBDFF892
:101F30008C910022C9F100094B46CDE9040100F063
:101F400013FA00F0C1FA064620460022594B0099C8
:101F500000F00AFA00224B46CDE9060100F004FA2F
:101F600000F0B2FA044618F0FF4F7DD0284600F08A
:101F70002BFC02460B46DDE9060100F03BFB00F0BE
:101F8000C1F918F0FF4F00906FD0DDE90481894658
:101F9000284600F019FC42464B4600F02BFB00F0AF
:101FA000B1F981460146039800F0C4FD0246049051
:101FB000CAEBCA00DFF80CA102900AEB80051046BC
:101FC00055F8241000F0B6FD80460099039800F003
:101FD000B1FD059055F8261000F0ACFD05464946C8
:101FE000019800F0A7FDCBEBCB0B0AEB8B0A03901B
:101FF0005AF8241000F09EFD8146DDE9001000F043
:1020000099FD00905AF8261000F094FD494600F022
:1020100007FC294600F004FC414600F001FC824622
:102020003860DFF8A090029809F1C40909EB800537
:10203000049A55F82410104600F07CFD804655F8AF
:102040002610059800F076FD09EB8B09054659F836
:102050002410039800F06EFD044659F826100098ED
:1020600000F068FD214601E014E016E000F0D8FB26
:10207000294600F0D5FB414600F0D2FB78600121F3
:10208000504600F036FF386000207860B86009B034
:10209000BDE8F08F0020014671E7002001467EE791
:1020A000000020C10000204100004040000004402A
:1020B0000000F83F0000E03F0000E0BF0000F8BF74
:1020C000000004C0702F000886B0FFF72BFE4FF40D
:1020D000A060FFF7FDF84FF4E13000F0ADF8FFF736
:1020E000AFF9FFF755FB48F69F4140F2CF70FFF77D
:1020F000A1FA0020FFF7F6F80020FFF7F9F800201A
:10210000FFF7FCF80020FFF7FFF83E48FFF760F804
:102110003D490020CDE900013C493D4A0B463D4880
:10212000FFF7EEFD37480121001FDFF8E8A001703E
:1021300005214170A0F1080B324C241F207840B9D2
:1021400001202070201DFFF743F8DBF80C10CBF8BE
:10215000101060780028EFD12FA0FEF743F805207B
:102160006070DBF80410CAF808105C465546DBF8CE
:10217000100000F0E7FD20F00040244900F0A6FD2B
:102180000AD8A968206900F0A1FD01D2002014E05E
:1021900040F2F31020800EE01E4822696168FFF7CC
:1021A00057FD286900F072FC2188084480B2208025
:1021B000B0F5F97F02D940F2F310208080B2FFF72A
:1021C00091F8208800F0AFF981468846AA46286930
:1021D00000F0FAFA05460E46206900F0F5FA0446CA
:1021E0000F46DAF8080000F0EFFACDF814800B463D
:1021F000CDE9004702A9024681E8600209A0FDF787
:10220000F1FF99E70C0000200000A04100002041F0
:102210006666663F440000207069642072756E0D2A
:102220000A0000007069643A25662C25662C256634
:102230002C25660A0000000070B5054686B0012115
:1022400044F20400FFF774F84FF40070ADF810008A
:1022500003248DF8124018201D4E8DF8130004A998
:102260003046FEF764FF3015ADF8100004208DF8FD
:10227000130004A93046FEF75AFF25208DF81400FC
:102280008DF815408DF8164001208DF8170005A82F
:10229000FEF7ECFF0020ADF80400ADF80600ADF845
:1022A0000800ADF80C000C200A4CADF80A000095AF
:1022B00069462046FFF75CFC012240F2255120468A
:1022C000FFF73DFC01212046FFF710FC06B070BD72
:1022D000000801400038014010B500290AD00878F4
:1022E000002807D005487844FEF724FB002801D0D9
:1022F000002010BD0248784410BD00008A0F000085
:10230000820F000021F00042A2F16052B2F5801F5E
:1023100001F0004328BFD2F17F6C0BD95FEA001CAB
:1023200043EAC20242EB507018BF704728BF20F04A
:1023300001007047B2F5801FBCBF184670474FEAD6
:10234000410C1CF5001F02D2084600F0BABC70B563
:1023500000F0FCF800000089FFF7F6BF4FF00040E6
:10236000A0F580007047000010B591EA030F48BF48
:1023700083F0004300F14681841A71EB030C05D20F
:10238000121943EB0C03001B61EB0C01DFF824E195
:102390004FEA1154A4EB135C1EEA430F18BF9EEAE8
:1023A000445F73D023EA0E03DCF1200E21EA0451CE
:1023B00043F4801332D322FA0CFE10EB0E0023FA02
:1023C0000CFE41EB0E01CCF1200E03FA0EFE10EBD9
:1023D0000E0051F10001B1F5801FCCF1200E32D278
:1023E00001EB045112FA0EF2BDE8104058BF7047DD
:1023F000401C38BF5FEA420218BF7047002814BF74
:1024000020F0010041F100014FEA410313F5001FE4
:1024100038BF7047A1F1C04100F0E6B8012A43EB94
:102420000302ACF1200CDCF11F0E32BF4FF0000EA6
:1024300023FA0CF310EB030041EB0451B4EB115FF2
:10244000D0D0A1EB045101F5801149085FEA3000BA
:1024500001EB04510ED350F1000038BF12FA0EFE0A
:1024600008D1BDE81040C9E7401C38BF5FEA42020E
:10247000CAD1C3E7BDE810404FEA410313F5001F7E
:1024800038BF7047A1F1C04100F0AEB89EEA445F8A
:1024900008D011EA5E0FBDE8104004BF01F0004112
:1024A00000207047BDE8104070B500F04FF800BF45
:1024B00064FBBE3E0000E0FF02494FF0000000F068
:1024C000B8BC00BF0000F87F4FEA41034FEA535306
:1024D000A3F58063D3F11E03C8BFD3F1210C0CDD3B
:1024E0004FF0004242EAC12242EA505232FA03FC63
:1024F0008CEAE17CACEBE1707047102BC4BF00208C
:10250000704703F5787CBCF1FF3F04D06FF00042C8
:1025100082EA2100704770B500F018F849922480D3
:1025200000207047F2E7B0FA80F310FA03F10AD006
:10253000C3F11D0303F580634FEA41504FEA035294
:1025400002EBD12170474FF0000070470EF1020EF0
:102550002EF0030E5EF8046B364205D4012A43EBDD
:10256000030515F5001F12D8012841EB010C1CF5DD
:10257000001F0CD80ED14FEAD17C15F5001F0CEBD3
:102580004C0C0CF1020C08BF4CEBD37C04E04FF078
:10259000080C01E04FEAD37C0CEB4C0526FA05F65B
:1025A00006F00706B6F1040C06D20EEB860CBDE869
:1025B00070404CF0010C6047DFE80CF0090B0202A0
:1025C0004FF000414FF00000A1F5002170BD194609
:1025D0001046012851EB010418BFD4F5001484BF44
:1025E000002001F0004170BD0808A0F500114FEA7D
:1025F0003101704710B591EA030F48BF83F00043E3
:102600003FF5BAAE841A71EB030C07D212198CF0A5
:10261000004C43EB0C03001B61EB0C01DFF8A4E161
:102620004FEA1154A4EB135C1EEA430F18BF9EEA55
:10263000445F00F0B08023EA6E03524221EA045165
:10264000C3EB6E0338BF5B1EDCF1200E25D322FAEC
:102650000CFE10EB0E0043FA0CFE41EB0E01CCF128
:10266000200E03FA0EFE10EB0E0051F10001CCF12A
:10267000200E29D412FA0EF201EB0451BDE81040ED
:1026800058BF7047401C1CBFB2F1004F7047002874
:102690000CBF491C20F00100704712EB020E43EB07
:1026A000030218BF4FF0010E4EEA4202ACF1200CBB
:1026B000DCF11E0E54D943FA0CFE10EB0E0051F162
:1026C000FF31CCF11E0ED5D50EF1010E12FA0EFE21
:1026D000404141EB010101EB445C5FEA5C5C10D9D5
:1026E00010EBDE7001EB045138BFBEF1004FBDE8C6
:1026F000104018BF704700280CBF491C20F0010093
:10270000704730D24FEAD42C11F5001124F4006444
:102710001BD0B1FA81F20B3AA41AA41ED2F1200305
:10272000914030FA03F31943904001EBCC71002C37
:1027300001EB0451BDE81040A8BF704701F1C04152
:102740004FF0000001F000417047B0FA80F310FA3A
:1027500003F100D110BDE41A173C4805C90AE4E7AB
:1027600001EB045110BD491001EB0451BDE81040CC
:102770004FEA300002E04FF0000170474A0008BF06
:102780000042F8D0B2F5001F28BF704701F00041A9
:102790004FF0000070479EEA445F07D011EA5E0FD9
:1027A000BDE8104004BF002100207047BDE8104084
:1027B00070B5FFF7CBFE00BF40DFF63E83F000416F
:1027C000104670470000E0FF43004FEAD30C4FEA89
:1027D0003C0C43401FBF40070CF1605113F0FE4F0B
:1027E00070471CF0006F03D100200CF000417047CF
:1027F0000CF0004343EA507010B540EACC0000F002
:102800001AFA00BF000000924FEA0001FFF7ECBE89
:102810004FF000414FF00000A1F50021704700008B
:1028200090EA010F48BF81F0004100F19282421A04
:102830003CBF801A89184FEAD0524FF07F4C1CEAF7
:10284000410FA2EBD15318BF9CEA026F00F03B800E
:102850004FF0004C4CEA00204CEA012121FA03FC25
:1028600010EB0C0C1ED202F1FF325FEA1C2040EB91
:10287000C25038BF70471CF07F0F4FEA400C18BFA2
:10288000BCF17F4F38BF7047C3F12003994008BFA8
:1028900020F00100BCF17F4F38BF7047A0F1C0406D
:1028A00000F00FBA4FEA3C00000A40EBC25028BFCC
:1028B0001CF0FF0F4FEA400CE6D018BFBCF17F4F71
:1028C00038BF7047EAE79CEA026F05D010EA5C0F58
:1028D00008BF00F00040704710B500F0ACF900BF31
:1028E00064FBBE3E014800F0A4BA00BF0000C07FF8
:1028F000401058BFC0F14040491058BFC1F140419D
:102900008142EFF3008070474FF47F0C1CEAD01235
:102910001EBF1CEAD11392EA0C0F93EA0C0F00F0D1
:10292000858090EA010F48BF42F4807240F4000CA9
:1029300041F400002CF07F4120F07F4000B581423F
:10294000A2EB03020FF2081CACEB504EC0F10000EA
:102950009EF800E04FEA4E0E00FB0EFC38BF490027
:102960004FEA2C1C02F5FA020CFB0EF34FEACE1EC6
:102970004FEA112C4FEAC1210EEB635E42EB22427B
:102980000EFB0CFC4FEA1C5300FB03114FEA112C09
:102990004FEA01310EFB0CFC4FEADC4C00FB0C1142
:1029A000C14228BF09184CEB03335DF804EB10EB70
:1029B000410143EBC250B2F57C0F38BF704729D5B7
:1029C00012F0F00F1CBF00F1C04000F00040704753
:1029D000008182838485868788898B8C8D8E8F91F8
:1029E0009293959697999A9C9D9FA0A2A3A5A7A81C
:1029F000AAACAEB0B2B3B5B7B9BCBEC0C2C5C7C948
:102A0000CCCED1D4D7D9DCDFE2E6E9ECF0F3F7FAAB
:102A1000FE0000004FEA400C0CF1807CBCF17E4FC0
:102A200028BF7047B0F1C04000F04BB990EA010FE9
:102A30000CEAD11348BF42F48072624538BF634547
:102A400007D213F47F0F16D080EA010000F0004097
:102A5000704710B500F0EFF8097EFC3E00F005B8B5
:102A600080EA010000F00040704780EA010000F0B9
:102A7000004000F026B912F47F0F04BF02487047EF
:102A800080EA010000F01DB90000C07FC10DD1F146
:102A90009E0206DB4FEA002343F0004323FA02F0D4
:102AA0007047004207D54FEA4001B1F1FE4F02D214
:102AB0004FF00000704710B500F0BDF84992248037
:102AC000002070476FEA20007047000050EA010CB8
:102AD00000F113801CF5000F58BFBCF5000F01D4A6
:102AE0008842704707D710F5000F58BF11F5000F47
:102AF00015D488427047894270471CF5000F04D5F1
:102B0000BCF5000FF7D5814270474FF0807C1CEB7D
:102B1000400F38BF1CEB410F01D28142704710B506
:102B200000F089F8922449004FF000504FF0805196
:102B3000FFF7DEBE4FF47F0C1CEAD0121EBF1CEA6A
:102B4000D11392EA0C0F93EA0C0F00F0478090EA41
:102B5000010F48BF42F480724FF0004C4CEA002055
:102B60004CEA012102EB0302A0FB0113A2F50002D3
:102B7000002918BF43F001035B0028BF4FEA33036D
:102B800042EB22425FEA132C4CEBC2502EBFBCEB4F
:102B9000436FB2F57C0F70474FEA036CBCF1004FF6
:102BA00008BF20F00100B2F57C0F38BF70470BD58D
:102BB00082F0FF0212F5803FC8BF704700F1C040AD
:102BC000D8BF00F00040704700F5000C5FEA4C0CE5
:102BD00048BF7047B0F1C04000F073B890EA010FF1
:102BE0000CEAD11348BF42F48072624538BF634596
:102BF00004D280EA010000F00040704710B500F0F8
:102C00001AF800BF8900013E00F007B800F009B8CB
:102C10005FEA410C5FEA1C6C08D080EA010000F01A
:102C200050B85FEA400C5FEA1C6CF6D14FF00040F0
:102C3000A0F5800070470EF1020E2EF0030E5EF834
:102C4000044B244204D44FEA4102B2F17F4F11D821
:102C50004FEA4003B3F17F4F0CD80ED14FEAD07C3E
:102C6000B2F17F4F0CEB4C0C0CF1020C08BF4CEB9B
:102C7000D17C04E04FF0080C01E04FEAD17C0CEB72
:102C80004C0324FA03F404F00704B4F1040C06D254
:102C90000EEB840CBDE810404CF0010C6047DFE8FF
:102CA0000CF0070802024FF00040A0F5800010BDB4
:102CB0000846420018BFD2F1807288BF00F0004081
:102CC00010BDFF2141EAD050C005704751EA000C09
:102CD00000F113801CF5000F58BFBCF5000F01D4A4
:102CE0008142704707D711F5000F58BF10F5000F4C
:102CF00015D481427047894270471CF5000F04D5F6
:102D0000BCF5000FF7D5884270474FF0807C1CEB74
:102D1000410F38BF1CEB400F01D28842704780EA58
:102D2000010081EA000180EA0100FFF7F8BE80F0AF
:102D3000004090EA010F7FF57AAD81F0004100F08C
:102D400008B8000090EA010F48BF81F000413FF54C
:102D50006EAD421A04D882F00042A0EB020011448A
:102D60004FEAD0524FF07F4C1CEA410FA2EBD153F7
:102D700018BF9CEA026F4AD04FF0004C4CEA00208A
:102D80004CEA012121FA03FCB0EB0C0C0FD412F039
:102D9000FE0F36D05FEA4C001DD5001240EBC2504A
:102DA00038BF70471CF03F0F18BF70470BE0A2F10F
:102DB00001025FEA1C2040EBC25038BF70471CF094
:102DC0007F0F18BF7047C3F12003994014BF401E06
:102DD00020F00100704780084FEA122308BF7047B7
:102DE000B0FA80FCA2EB0C02CCF1280C60FA0CF0DB
:102DF00093EA122F04BF00EBC25070474FEAC37032
:102E00007047130A5FEADC1008BF7047F6E79CEAD8
:102E1000026F04D010EA5C0F08BF0020704710B5A5
:102E2000FFF709FF40DFF63E81F000407047FDF7F5
:102E3000F4BA0CF00F03092B08BF082000F07F80C4
:102E40000A2B0BD0082B18BF704708BF1CF0400F8F
:102E50000AD04FF000004FF0000170471CF0400F07
:102E600018BF4FF0004070471CF0100F08D020F042
:102E7000704300F07F4242EAD3014FEA437070474B
:102E800000F0604021F07F4242EA000201F07F4002
:102E900040EA727070474FF0FF0C4CF4E06C1CEA93
:102EA00011531CBF9CEA030C9445C2BFDA4201EBEC
:102EB00002517047002B0DD0BCF1000F0FD0002A3B
:102EC00001F00041A4BF41F0E04141F07F614FF0CB
:102ED0000000704701F000414FF00000704750EAD9
:102EE00001334FF09B0C18BF4CF0806C7FF4E4AAC8
:102EF00070474FF0FF0212EAD0521CBF92F0FF035E
:102F00008B42C2BFD14200EBC1507047002A0AD0A9
:102F1000002B0BD0002900F00040A4BF40F0FE4081
:102F200040F40000704700F00040704743024FF04B
:102F30000B0C18BF4CF0806C7FF4D4AC70471CF4C1
:102F4000801F11D01CF4E02F03D06FEACC31490070
:102F500070474FF04050EFF3008222F0704242EA97
:102F6000000282F3008870474FF0000070470000B5
:102F70000000404000004040000000400000404091
:102F80000000803F000000400000000000004040C2
:102F90000000004000000040000000400000803FB2
:102FA0000000004000000000000000400000803FE2
:102FB0000000803F0000803F0000803F0000803F15
:102FC00000000040000000400000803F00000000C2
:102FD00000000000000000000000803F00000040F2
:102FE0000000803F0000803F0000803F0000803FE5
:102FF0000000803F00000040000000400000004052
:103000000000004000000040000000400000404080
:1030100000004040000040400000004000004040F0
:1030200000004040000040400000404000004040A0
:1030300000004040000040C0000040C0000040C010
:10304000000040C0000000C0000040C0000040C0C0
:10305000000040C0000040C0000000C0000000C0F0
:10306000000000C0000040C0000040C0000000C0E0
:10307000000000C0000080BF000080BF000080BFD3
:10308000000000C0000000C0000000C0000080BFC1
:10309000000000000000000000000000000080BFF1
:1030A000000000C0000000C0000080BF000080BF22
:1030B000000080BF000080BF000000C0000000C012
:1030C000000000C0000000C0000080BF000000C081
:1030D000000000C0000040C0000040C0000000C070
:1030E000000040C0000000C0000040C0000040C020
:1030F000000040C0000040C00000803F0000803F52
:10310000000000000000000000000000000040403F
:1031100000004040000080BF000080BF000080BF72
:10312000000080BF00000000000080BF00000040E1
:10313000000040C0000040C0000000C0000080BF90
:10314000000000000000803F00000040000040C080
:10315000000000C0000000C0000080BF00000000B0
:103160000000803F00000040000040C0000000C0A0
:10317000000080BF000080BF000000000000803F12
:103180000000803F000000C0000080BF000080BF42
:10319000000080BF000000000000803F0000803F72
:1031A0000000803F00000000000000000000000060
:1031B00000000000000040400000404002400000CD
:1031C000000000A00000000005400000000000C852
:1031D000000000000C4000000000409C00000000C7
:1031E000194000000020BCBE000000003440000078
:1031F000BFC91B8E00000004B5400000504BCFD06B
:103200006607E2CF010000006C4100003E8251AA37
:10321000DFEEA73401000000D9420000DCB5A0E2D7
:103220003A301F97FFFFFFFFB4450000FD25A0C8FF
:10323000E9A3C14FFFFFFFFFFF3F00000000008038
:1032400000000000FF3F00000000008000000000C0
:103250008C32000800000020440000002801000813
:10326000D0320008440000208C0600004401000811
:103270001C00000043000000F8FFFFFF0C000000EE
:103280000E0000000F0000002E00000000000000F3
:1032900000002042000000000000000000000000CC
:1032A00000A24A0400000000000000000102030424
:1032B00006070809000000000000000002040608DC
:1032C00000000000010203040102030406070809CC
:04000005080000ED02
:00000001FF
